:100000000C94120A0C942F0A0C942F0A0C942F0AA9
:100010000C942F0A0C942F0A0C942F0A0C942F0A7C
:100020000C942F0A0C942F0A0C942F0A0C942F0A6C
:100030000C942F0A0C942F0A0C942F0A0C942F0A5C
:100040000C942F0A0C942F0A0C942F0A0C942F0A4C
:100050000C942F0A0C942F0A0C942F0A0C942F0A3C
:100060000C942F0A0C942F0A0C942F0A0C942F0A2C
:100070000C942F0A0C942F0A0C942F0A0C942F0A1C
:100080000C942F0A0C942F0A0C942F0A1E11980C12
:10009000920008000C00200000000000000000009A
:1000A0000000000000000000000000000000000050
:1000B0000000000000000000000000001C00000024
:1000C0007E0003007E0003001C0000000000000012
:1000D0000000000000000000000000000E00000012
:1000E0001E00000000000000000000001E000000D4
:1000F0000E0000000000000088000000FE00030069
:10010000FE00030088000000FE000300FE00030064
:100110008800000000000000180001003C00010001
:100120002700070027000700E4000100C4000000CA
:10013000000000000000000018000300980001000B
:10014000C000000060000000300003001800030041
:100150000000000000000000EC000100FE000300B1
:10016000320002007E000300EC000100C00003002A
:10017000600002000000000000000000100000000D
:100180001E0000000E000000000000000000000043
:1001900000000000000000000000000070000000EF
:1001A000F80000008C0001000600030002000200BD
:1001B000000000000000000000000000020002003B
:1001C000060003008C000100F80000007000000031
:1001D000000000000000000020000000A800000057
:1001E000F80000007000000070000000F80000003F
:1001F000A800000020000000000000002000000017
:1002000020000000F8000000F800000020000000BE
:1002100020000000000000000000000000000400BA
:1002200000000700000003000000030000000000C1
:10023000000000000000000020000000200000007E
:10024000200000002000000020000000200000002E
:10025000200000000000000000000000000000007E
:100260000000030000000300000003000000000085
:1002700000000000000000000000030080000100FA
:10028000C000000060000000300000001800000006
:100290000C00000000000000FC000100FE00030054
:1002A000C2000200720002001A000200FE000300F9
:1002B000FC0001000000000008000200080002002D
:1002C000FC000300FE00030000000200000002002A
:1002D00000000000000000000C0003008E0003007E
:1002E000C2000200620002003E0003001C00030086
:1002F00000000000000000000400010006000300F0
:100300002200020022000200FE000300DC000100C7
:10031000000000000000000060000000700000000D
:10032000580000004C000200FE000300FE00030025
:1003300040000200000000003E0001003E000300FB
:100340002200020022000200E2000300C2000100BD
:100350000000000000000000F8000100FC000300A5
:100360002600020022000200E2000300C00001009B
:1003700000000000000000000E0000000E00000061
:1003800082000300C2000300620000003E00000083
:100390001E00000000000000DC000100FE00030061
:1003A0003200020062000200FE000300DC000100D7
:1003B00000000000000000001C0000003E000200E1
:1003C00022000300E2000300FE0000003C000000E9
:1003D000000000000000000000000000000000001D
:1003E0009800010098000100980001000000000042
:1003F00000000000000000000000000000000000FD
:100400009800050098000700980003000000000015
:10041000000000000000000020000000700000004C
:10042000D80000008C00010006000300020002005A
:10043000000000000000000000000000500000006C
:10044000500000005000000050000000500000006C
:100450005000000000000000000000000200020048
:10046000060003008C000100D800000070000000AE
:100470002000000000000000040000000600000052
:1004800062000300720003001E0000000C00000068
:100490000000000000000000FC000100FE0003005E
:1004A0000200020072000200720002007E000200E0
:1004B0007C00000000000000F8000300FC000300C6
:1004C0004600000046000000FC000300F8000300A6
:1004D000000000000000000002000200FE00030017
:1004E000FE0003002200020022000200FE000300C2
:1004F000DC00010000000000F8000000FC0001002A
:100500000600030002000200020002008E00030049
:100510008C0001000000000002000200FE00030049
:10052000FE0003000200020006000300FC000100C0
:10053000F80000000000000002000200FE000300BE
:10054000FE000300220002002200020072000200EE
:10055000060003000000000002000200FE0003008D
:10056000FE000300220002002200000076000000CE
:100570000E00000000000000F8000000FC00010078
:10058000060003000200020042000200CE00030049
:10059000CC00030000000000FE000300FE0003008A
:1005A0002000000020000000FE000300FE00030009
:1005B0000000000000000000000000000200020037
:1005C000FE000300FE000300020002000000000025
:1005D0000000000000000000C0000100C000030097
:1005E0000000020002000200FE000300FE00010005
:1005F000020000000000000002000200FE000300F4
:10060000FE00030020000000F8000000DE000300F0
:10061000060003000000000002000200FE000300CC
:10062000FE00030002000200000002008000030040
:10063000C000030000000000FE000300FE000300F5
:100640001C000000380000001C000000FE00030039
:10065000FE00030000000000FE000300FE00030097
:100660003800000070000000E0000000FE00030001
:10067000FE00030000000000F8000000FC00010084
:10068000060003000200020006000300FC00010057
:10069000F80000000000000002000200FE0003005D
:1006A000FE00030022000200220000003E000000C5
:1006B0001C00000000000000F8000000FC00010029
:1006C0000600010082000500C6000700FC000700CC
:1006D000F80004000000000002000200FE00030019
:1006E000FE0003002200000062000000FE00030084
:1006F0009C000300000000009C000100BE000300FD
:100700002200020062000200CE0003008C00010003
:1007100000000000000000000600000002000200CF
:10072000FE000300FE0003000200020006000000BD
:100730000000000000000000FE000100FE000300B9
:100740000000020000000200FE000300FE000100A5
:100750000000000000000000FE000000FE0001009C
:100760000000030000000300FE000100FE00000086
:1007700000000000000000007E000000FE000300FA
:10078000800003006000000080000300FE00030002
:100790007E000000000000008E000300DE00030069
:1007A0007000000070000000DE0003008E000300F7
:1007B00000000000000000001E0000003E000200DB
:1007C000E0000300E00003003E0002001E00000005
:1007D00000000000000000000E000300C60003003F
:1007E000E20002003A0002001E00020006000300C0
:1007F0008600030000000000000000000000000070
:10080000FE000300FE0003000200020002000200DE
:1008100000000000000000000C00000018000000B4
:100820003000000060000000C000000080000100F7
:1008300000000300000000000000000000000000B5
:100840000200020002000200FE000300FE0003009E
:100850000000000000000000080000000C00000084
:100860000600000003000000060000000C0000006D
:100870000800000000000000000004000000040068
:100880000000040000000400000004000000040058
:100890000000040000000400000000000000000050
:1008A000030000000700000004000000000000003A
:1008B000000000000000000080000100D0000300E4
:1008C0005000020050000200F0000100E0000300B0
:1008D000000002000000000002000200FE00030011
:1008E000FE0001001000020010000200F0000300F2
:1008F000E000010000000000E0000100F000030043
:10090000100002001000020030000300200001006F
:100910000000000000000000E0000100F000030003
:100920001000020012000200FE000100FE000300A1
:100930000000020000000000E0000100F0000300E1
:10094000500002005000020070000300600001002F
:10095000000000000000000020000200FC00030076
:10096000FE00030022000200260000000400000038
:100970000000000000000000E0000400F0000D0096
:100980001000090010000900E0000F00F00007004F
:10099000100000000000000002000200FE00030042
:1009A000FE0003002000000010000000F000030023
:1009B000E000030000000000000000001000020042
:1009C00010000200F6000300F60003000000020021
:1009D00000000200000000000000060000000E0001
:1009E0001000080010000800F6000F00F6000700D5
:1009F000000000000000000002000200FE000300F2
:100A0000FE00030040000000E0000000B000030012
:100A100010000300000000000000000002000200BF
:100A200002000200FE000300FE00030000000200BE
:100A30000000020000000000F0000300F0000300CE
:100A400010000000F000010010000000F0000300A2
:100A5000E000030000000000F0000300F0000300CD
:100A60001000000010000000F0000300E000030090
:100A70000000000000000000E0000100F0000300A2
:100A80001000020010000200F0000300E00001006E
:100A9000000000000000000010000800F0000F003F
:100AA000E0000F0010000A0010000200F000030038
:100AB000E000010000000000E0000100F000030081
:100AC0001000020010000A00E0000F00F0000F000C
:100AD000100008000000000010000200F0000300F9
:100AE000F000030040000200300000007000000031
:100AF0006000000000000000200001007000030002
:100B00005000020090000200B0000300200001002D
:100B1000000000000000000010000000F8000100CC
:100B2000FC00030010000200100003001000010090
:100B30000000000000000000F0000100F0000300D1
:100B40000000020000000200F0000100F0000300BD
:100B50000000020000000000F0000000F0000100B2
:100B60000000030000000300F0000100F00000009E
:100B70000000000000000000F0000000F000030092
:100B800000000300C000000000000300F0000300AC
:100B9000F000000000000000100002003000030020
:100BA000E0000100C0000000E00001003000030090
:100BB000100002000000000000000800F000080023
:100BC000F000090000000D0000000700F000030025
:100BD000F00000000000000030000300900003005F
:100BE000900002005000020070000200300003007C
:100BF0000000000000000000200000007000000065
:100C0000DC0001008E00030002000200020002006E
:100C100000000000000000000000000000000000D4
:100C200000000000DE000300DE0003000000000002
:100C300000000000000000000200020002000200AC
:100C40008E000300DC0001007000000020000000A6
:100C500000000000000000000C0000000E0000007A
:100C600002000000060000000C0000000800000068
:100C70000E00000002000000C0000100E0000100C2
:100C8000300001001800010030000100E000010008
:100C9000C000010000000000060008002000000065
:100CA000000000000000000000000000000006003E
:100CB0005F000600000000000700030000000700BE
:100CC0000300000024007E0024007E0024000000B9
:100CD00024002B006A0012000000000063001300D3
:100CE0000800640063000000360049005600200040
:100CF000500000000000070003000000000000009A
:100D000000003E0041000000000000000000410023
:100D10003E0000000000000008003E001C003E00F5
:100D200008000000080008003E000800080000005D
:100D30000000E00060000000000000000800080063
:100D400008000800080000000000600060000000CB
:100D50000000000020001000080004000200000055
:100D60003E005100490045003E00000000004200E6
:100D70007F0040000000000062005100490049006F
:100D800046000000220049004900490036000000EA
:100D90001800140012007F00100000002F0049000E
:100DA00049004900310000003C004A004900490068
:100DB0003000000001007100090005000300000080
:100DC000360049004900490036000000060049008D
:100DD000490029001E00000000006C006C000000AB
:100DE000000000000000EC006C00000000000000AB
:100DF000080014002200410000000000240024002C
:100E000024002400240000000000410022001400FF
:100E1000080000000200010059000900060000005F
:100E20003E0041005D0055001E0000007E001100E4
:100E3000110011007E0000007F00490049004900B8
:100E4000360000003E004100410041002200000049
:100E50007F004100410041003E0000007F0049004A
:100E600049004900410000007F0009000900090015
:100E7000010000003E004100490049007A000000E6
:100E80007F000800080008007F000000000041000B
:100E90007F004100000000003000400040004000A2
:100EA0003F0000007F000800140022004100000005
:100EB0007F00400040004000400000007F00020032
:100EC000040002007F0000007F0002000400080010
:100ED0007F0000003E004100410041003E00000054
:100EE0007F00090009000900060000003E004100E3
:100EF000510021005E0000007F0009000900190078
:100F00006600000026004900490049003200000048
:100F1000010001007F000100010000003F004000CF
:100F2000400040003F0000001F0020004000200063
:100F30001F0000003F0040003C0040003F00000058
:100F4000630014000800140063000000070008009C
:100F500070000800070000007100490045004300D0
:100F60000000000000007F00410041000000000080
:100F700002000400080010002000000000004100F2
:100F800041007F0000000000040002000100020098
:100F9000040080008000800080008000800000004D
:100FA00000000300070000000000000020005400C3
:100FB00054005400780000007F00440044004400C6
:100FC00038000000380044004400440028000000BD
:100FD00038004400440044007F0000003800540002
:100FE000540054000800000008007E0009000900B9
:100FF000000000001800A400A400A4007C00000071
:101000007F000400040078000000000000000000E1
:101010007D004000000000004000800084007D0052
:10102000000000007F0010002800440000000000C5
:10103000000000007F004000000000007C00040071
:1010400018000400780000007C0004000400780010
:101050000000000038004400440044003800000054
:10106000FC00440044004400380000003800440004
:1010700044004400FC0000004400780044000400E8
:101080000800000008005400540054002000000034
:1010900004003E0044002400000000003C0040002A
:1010A00020007C00000000001C0020004000200008
:1010B0001C0000003C006000300060003C000000AC
:1010C0006C00100010006C00000000009C00A000EC
:1010D00060003C00000000006400540054004C001C
:1010E0000000000008003E00410041000000000038
:1010F0000000000077000000000000000000410038
:1011000041003E0008000000020001000200010052
:10111000000000003C002600230026003C000400E4
:101120000600200000000000000000000000000099
:1011300017000000000003000000030000001F0073
:101140000A001F00000014003F000A000000090010
:101150000400120000001A0015001E000000030029
:101160000100000000000E0011000000000011004E
:101170000E000000000015000E0015000000040025
:101180000E00040000003000100000000000040009
:10119000040004000000000010000000100008001F
:1011A0000400020000001F0011001F0000001200D8
:1011B0001F001000000019001500130000001100AE
:1011C00015000A000000070004001F0000001700BF
:1011D00015000D0000001F0015001C00000001009C
:1011E0001D00030000001F0015001F000000070085
:1011F00015001F0000000000140000000000300077
:1012000014000000000004000A0011000000140097
:1012100014001400000011000A0004000000010086
:101220001500020000001F001100170000001E0042
:1012300005001E0000001F0015000A0000000E003F
:101240001100110000001F0011000E0000001F001F
:101250001500110000001F000500010000000E0035
:1012600011001D0000001F0004001F0000001100FD
:101270001F0011000000080010000F0000001F00F8
:1012800004001B0000001F001000100000001F00E1
:1012900006001F0000001F0002001F0000000E00DB
:1012A00011000E0000001F000500020000000E00EB
:1012B00019001E0000001F0005001A0000001600A3
:1012C00015000D00000001001F00010000001F00BC
:1012D00010001F0000000F0010000F0000001F0092
:1012E0000C001F0000001B0004001B000000030096
:1012F0001C000300000019001500130000001F006F
:10130000110000000000030004001800000011009C
:101310001F00000000000200010002002000200069
:101320002000200000000100030000000000180061
:1013300014001C0000001F0014000800000008003A
:10134000140014000000080014001F0000000C002E
:101350001C001400000004001E00050000002C000A
:1013600024003C0000001F000400180000000000E2
:101370001D000000000020003D00000000001F00D4
:1013800008001400000000001F00000000001C0006
:101390000C001C0000001C000400180000000800E5
:1013A0001400080000003C001400080000000800C1
:1013B00014003C0000001C000400000000001000AD
:1013C0001C000400000004001E00140000001C00AB
:1013D00010001C0000000C0010000C0000001C009D
:1013E00018001C00000014000800140000002C006D
:1013F00010000C00000004001C001000000004009D
:101400001F001100000000001F000000000011007C
:101410001F000400020001000200010000000C0097
:101420000A000C0011241FBECFEFD0E4DEBFCDBFF9
:1014300011E0A0E0B1E0E2E6FDE100E00BBF02C098
:1014400007900D92A632B107D9F721E0A6E2B1E0EC
:1014500001C01D92A632B207E1F709D080C40C94F6
:10146000000080E185B981EB84B9B6C10895CF93BE
:10147000DF93CDB7DEB727970FB6F894DEBF0FBE68
:10148000CDBFEFDF2FE382E49FE02150804090400A
:10149000E1F700C000000FE110E025E040E465E066
:1014A00080E0C7D124E140E465E080E4C2D12FE1CF
:1014B00030E04CE060E280E431D22FE382E49FE050
:1014C000215080409040E1F700C000002BE440E450
:1014D0006CE280E4AED12FE382E49FE021508040B3
:1014E0009040E1F700C0000021E44CE260E380E4BA
:1014F000A0D12FE382E49FE0215080409040E1F7AB
:1015000000C0000021E444E560E380E492D12FE3D1
:1015100082E49FE0215080409040E1F700C000004D
:1015200025E540E56BE480E484D12FE382E49FE08D
:10153000215080409040E1F700C0000025E54CE2DA
:101540006BE480E476D12FE382E49FE02150804079
:101550009040E1F700C0000087E0E0E0F1E0DE014C
:10156000119601900D928A95E1F7EE24E39400E044
:1015700010E02FEF3FEF4AE050E06AE070E0CE016C
:10158000019622D3FFCF28988EBD0DB407FEFDCF64
:10159000289A0895882311F02B9A08952B9808957E
:1015A00029988FE493EC0197F1F700C00000299A85
:1015B0008FE493EC0197F1F700C0000008952A989A
:1015C000E2CF08950F931F93CF93DF932A9A00974A
:1015D00071F0423060F0442361F0EC018C01040FA3
:1015E000111D8991D0DF0C171D07D9F702C0862F76
:1015F000CADFDF91CF911F910F9108950F931F9331
:10160000CF93DF93082F162FD42FC22F8AE2D7DF74
:1016100041E060E080E090E0D5DF41E0602F80E0D5
:1016200090E0D0DF41E060E080E090E0CBDF41E09F
:10163000612F80E090E0C6DF8BE2C1DF41E060E037
:1016400080E090E0BFDF41E06D2F80E090E0BADF06
:1016500041E060E080E090E0B5DF41E06C2F80E0A9
:1016600090E0B0DFDF91CF911F910F9108950F931C
:101670001F93CF93DF93092F182F2FE740E06FE7D9
:1016800080E0BCDF8CE29BDF2A9AC0E0D0E4802FB0
:101690007ADF812F78DF2197D1F7DF91CF911F91EA
:1016A0000F9108951F93CF93DF93CDB7DEB7A49723
:1016B0000FB6F894DEBF0FBECDBF182F8FE0E8E065
:1016C000F1E0DE01119601900D928A95E1F78FE02D
:1016D000E7E1F1E0DE01509601900D928A95E1F785
:1016E00088E08F8F88A38AE089A382E08AA380E5BF
:1016F0008BA38BE58CA354DF81E161DF83ED90E365
:101700000197F1F700C000008AE359DF41E065E08E
:1017100080E090E057DF86E252DF41E064E080E065
:1017200090E050DF82EF4BDF41E061E080E090E04D
:1017300049DF80EE44DF4FE060E0CE01019642DFFA
:1017400081EE3DDF4FE060E0CE0140963BDF81EB74
:1017500036DF42E060E0CE014F9634DF84EB2FDFCE
:1017600041E061E080E090E02DDF80EC28DF42E0A6
:1017700060E0CE01819626DF81EC21DF41E062E06E
:1017800080E090E01FDF85EC1ADF42E060E0CE01F0
:10179000839618DF87EC13DF41E060E480E090E09F
:1017A00011DF2FE740E06FE780E028DF86E307DF07
:1017B00041E0612F80E090E005DF80E090E057DFBE
:1017C00089E2FDDEA4960FB6F894DEBF0FBECDBF52
:1017D000DF91CF911F91089580E58CBD81E08DBD93
:1017E00084B18F6084B985B1866085B981E0D2DE2D
:1017F0002FE986E891E0215080409040E1F700C059
:10180000000080E04FCF0895CF93DF93962FC42F31
:10181000D52F21E0260F61E0680F492FEFDE8CE223
:10182000CEDE2A9A8D2FAFDE8C2FADDEDF91CF91E9
:1018300008956F927F928F929F92AF92BF92CF92B4
:10184000DF92EF92FF920F931F93CF93DF93D82FE6
:10185000C62F642E722EA22EB12CA61AB108C42E49
:10186000D12CC81AD108BB2034F4B194A194B1088A
:1018700099249A9402C099249394DD2034F4D1944D
:10188000C194D10888248A9402C088248394CC0C03
:10189000DD1CAA0CBB1CA8016C2F8D2FB5DFAC146E
:1018A000BD04BCF4C601959587957501E81AF90A3F
:1018B0006D1629F1FF201CF0C90DEC18FD08D80D9C
:1018C000EA0CFB1CA8016C2F8D2F9EDFD611F2CFE6
:1018D00016C0C501959587957601E81AF90A7C1618
:1018E00071F0FF201CF0D80DEA18FB08C90DEC0CB4
:1018F000FD1CA8016C2F8D2F87DFC711F2CFDF9160
:10190000CF911F910F91FF90EF90DF90CF90BF90FC
:10191000AF909F908F907F906F9008952F923F92FD
:101920004F925F926F927F928F929F92AF92BF92EF
:10193000CF92DF92EF92FF920F931F93CF93DF939B
:1019400000D000D0CDB7DEB7382E262ED42E3C8363
:101950002B83042F10E081E090E07C01E01AF10A73
:10196000AA24BB24A01AB10AAA0CBB1C642F620DC6
:10197000A901832D49DF622D6D194B815C81832D77
:1019800043DF4B815C81622D8D2D830D3DDF4B81CB
:101990005C81622D832D8D1937DF101611060CF036
:1019A00058C077247394730C44244A94430C812CBC
:1019B000912CCC24C394D12C522C5318FF203CF0F2
:1019C0000150110982E0A80EB11CEA0CFB1C8FEF3C
:1019D000881A980A82E0C80ED11CEC0CFD1C4B81C1
:1019E0005C81622C600E662D872D0EDF4B815C8141
:1019F000662D842D09DF4B815C81622C601A662D77
:101A0000872D02DF4B815C81662D842DFDDE672CE6
:101A1000650C4B815C81662D832D800F8983F4DEFC
:101A20004B815C81662D832D801B8A83EDDE642CC7
:101A3000650C4B815C81662D8981E6DE4B815C8182
:101A4000662D8A81E1DE73944A94801691060CF427
:101A5000B5CF0F900F900F900F90DF91CF911F9106
:101A60000F91FF90EF90DF90CF90BF90AF909F903D
:101A70008F907F906F905F904F903F902F90089540
:101A80002F923F924F925F926F927F928F929F928E
:101A9000AF92BF92CF92DF92EF92FF920F931F937C
:101AA000CF93DF93CDB7DEB727970FB6F894DEBF9D
:101AB0000FBECDBFEA2DF0E03197DF010AF4179693
:101AC000B595A795B595A795B595A795AA24A3947F
:101AD000AA0EAC9C202C1124222009F45AC03A836F
:101AE00029834F83362E90E088199109289E900112
:101AF000299E300D11243E832D83412C712C8E2D77
:101B000090E0880F991F9C0124573F4F3C832B8303
:101B100035C0EB81FC81C590D49036E0C30ED11C5A
:101B2000F601E80DF91DC490F52C00E010E0D12C71
:101B3000C601002E02C0959587950A94E2F780FFB2
:101B40000CC0842D6A2DF4D0E82E49815A816F2D66
:101B5000830D5ADE7E1408F47E2C0F5F1F4FF39422
:101B60000830110529F7639482E0880E911C28E063
:101B7000520E6A1470F24A0C421460F4AA20D9F38F
:101B80008D809E80840C911C880C991C5F80612C38
:101B9000C0CF712C872D27960FB6F894DEBF0FBEED
:101BA000CDBFDF91CF911F910F91FF90EF90DF900C
:101BB000CF90BF90AF909F908F907F906F905F90ED
:101BC0004F903F902F9008952F923F924F925F92A7
:101BD0006F927F928F929F92AF92BF92CF92DF923D
:101BE000EF92FF920F931F93CF93DF93CDB7DEB7A2
:101BF00028970FB6F894DEBF0FBECDBFAE2DB0E074
:101C0000AA0FBB1FA457BF4FFD01C590D490F6018A
:101C10009490FD01C590D490F6013296D490FD01C8
:101C2000A591B491FD013496B490DC01EC91EE23C2
:101C300009F465C0ED821C830B833A8329832A0152
:101C40003B0198878F8380E890E01C0129183108B8
:101C5000B92DB695BE83F301808190E02816390630
:101C60002CF4D2018C918D0D8C931082EF81F8852C
:101C7000F190F887EF83FAE0FF1207C0D2018C9150
:101C80008D0D8C93F301108235C0FDE0FF1203C06F
:101C9000D3011C922FC0B8E0FB1205C0F301808174
:101CA0008919808327C0FBE0FF1205C0D2011C9276
:101CB000F30110821FC0FB14E8F08F2D90E046D096
:101CC000892BC1F08B2CAD2CC92CED800B811C8194
:101CD00029813A81D2014C91F30160818F2DD0DEB0
:101CE000D3019C91882311F08E5F01C08E81890FF2
:101CF000F3018083AF81B8858C918111ACCF289698
:101D00000FB6F894DEBF0FBECDBFDF91CF911F910C
:101D10000F91FF90EF90DF90CF90BF90AF909F908A
:101D20008F907F906F905F904F903F902F9008958D
:101D3000991B79E004C0991F961708F0961B881F1D
:101D40007A95C9F780950895803209F0911104C001
:101D500080528F55E0F70895992788270895F894C1
:021D6000FFCFB3
:101D620030313233343536003F251C1E20122A9082
:101D72002411000000000020202020050015A73DAE
:061D820018252A2B2B3A64
:00000001FF
